:020000040800F2
:10000000000002205D220008051C0008071C0008F3
:10001000091C00080B1C00080D1C00080000000053
:100020000000000000000000000000000F1C00089D
:10003000111C000800000000131C0008151C00081B
:10004000AD220008AD220008AD220008AD22000854
:10005000AD220008AD2200081D1C0008AD220008DA
:10006000AD220008AD220008AD220008291C0008BE
:10007000391C0008491C0008AD220008AD22000808
:10008000AD220008AD220008591C0008AD2200086E
:10009000AD220008AD220008AD220008AD22000804
:1000A000AD220008AD220008AD220008AD220008F4
:1000B000AD220008AD220008AD220008AD220008E4
:1000C000AD220008AD220008AD220008AD220008D4
:1000D000AD220008AD220008AD220008AD220008C4
:1000E000AD220008AD220008AD220008AD220008B4
:1000F000AD220008AD220008AD220008711C0008E6
:10010000AD220008AD220008AD220008AD22000893
:10011000AD220008AD220008811C0008911C0008D7
:10012000AD220008AD220008AD220008AD22000873
:10013000AD220008AD220008AD220008AD22000863
:10014000AD220008AD220008AD220008A11C000865
:10015000AD220008AD220008AD220008AD22000843
:10016000AD220008AD220008AD220008AD22000833
:10017000AD220008AD220008AD220008AD22000823
:10018000AD220008AD220008AD220008AD22000813
:10019000AD22000800000000B11C0008C11C0008CE
:1001A000AD220008AD220008AD220008AD220008F3
:1001B000AD220008AD220008AD220008AD220008E3
:1001C000AD220008AD220008AD220008AD220008D3
:0801D000AD220008AD22000879
:1001D80081F0004102E000BF83F0004330B54FEAF0
:1001E80041044FEA430594EA050F08BF90EA020F5D
:1001F8001FBF54EA000C55EA020C7FEA645C7FEAF0
:10020800655C00F0E2804FEA5454D4EB5555B8BF12
:100218006D420CDD2C4480EA020281EA030382EA83
:10022800000083EA010180EA020281EA0303362D15
:1002380088BF30BD11F0004F4FEA01314FF4801CE8
:100248004CEA113102D0404261EB410113F0004FFA
:100258004FEA03334CEA133302D0524263EB4303B1
:1002680094EA050F00F0A780A4F10104D5F1200E4F
:100278000DDB02FA0EFC22FA05F2801841F10001AA
:1002880003FA0EF2801843FA05F359410EE0A5F17E
:1002980020050EF1200E012A03FA0EFC28BF4CF0AF
:1002A800020C43FA05F3C01851EBE37101F0004565
:1002B80007D54FF0000EDCF1000C7EEB00006EEB72
:1002C8000101B1F5801F1BD3B1F5001F0CD34908FC
:1002D8005FEA30004FEA3C0C04F101044FEA445253
:1002E80012F5800F80F09A80BCF1004F08BF5FEADA
:1002F800500C50F1000041EB045141EA050130BDBA
:100308005FEA4C0C404141EB0101013C28BFB1F5CB
:10031800801FE9D291F0000F04BF01460020B1FA16
:1003280081F308BF2033A3F10B03B3F120020CDAE9
:100338000C3208DD02F1140CC2F10C0201FA0CF0C7
:1003480021FA02F10CE002F11402D8BFC2F1200C2C
:1003580001FA02F120FA0CFCDCBF41EA0C019040E2
:10036800E41AA2BF01EB0451294330BD6FEA04042B
:100378001F3C1CDA0C340EDC04F11404C4F1200216
:1003880020FA04F001FA02F340EA030021FA04F328
:1003980045EA030130BDC4F10C04C4F1200220FA7F
:1003A80002F001FA04F340EA0300294630BD21FABD
:1003B80004F0294630BD94F0000F83F4801306BF83
:1003C80081F480110134013D4EE77FEA645C18BF77
:1003D8007FEA655C29D094EA050F08BF90EA020F0E
:1003E80005D054EA000C04BF1946104630BD91EA06
:1003F800030F1EBF0021002030BD5FEA545C05D109
:100408004000494128BF41F0004130BD14F5800447
:100418003CBF01F5801130BD01F0004545F0FE41BB
:1004280041F470014FF0000030BD7FEA645C1ABFF0
:10043800194610467FEA655C1CBF0B46024650EA27
:10044800013406BF52EA033591EA030F41F4002153
:1004580030BD00BF90F0000F04BF0021704730B5D9
:100468004FF4806404F132044FF000054FF00001AE
:1004780050E700BF90F0000F04BF0021704730B56F
:100488004FF4806404F1320410F0004548BF404244
:100498004FF000013EE700BF42004FEAE2014FEA99
:1004A80031014FEA02701FBF12F07F4393F07F4F74
:1004B80081F06051704732F07F4208BF704793F077
:1004C8007F4F04BF41F40021704730B54FF460748A
:1004D80001F0004521F000411CE700BF50EA01028D
:1004E80008BF704730B54FF000050AE050EA010236
:1004F80008BF704730B511F0004502D5404261EBA6
:1005080041014FF4806404F132045FEA915C3FF4E6
:10051800D8AE4FF003025FEADC0C18BF03325FEA83
:10052800DC0C18BF033202EBDC02C2F1200300FA34
:1005380003FC20FA02F001FA03FE40EA0E0021FA59
:1005480002F11444BDE600BF70B54FF0FF0C4CF447
:10055800E06C1CEA11541DBF1CEA135594EA0C0FF9
:1005680095EA0C0F00F0DEF82C4481EA030621EA34
:100578004C5123EA4C5350EA013518BF52EA03356F
:1005880041F4801143F4801338D0A0FB02CE4FF021
:100598000005E1FB02E506F00042E0FB03E54FF051
:1005A8000006E1FB03569CF0000F18BF4EF0010E49
:1005B800A4F1FF04B6F5007F64F5407404D25FEA45
:1005C8004E0E6D4146EB060642EAC62141EA5551F8
:1005D8004FEAC52040EA5E504FEACE2EB4F1FD0C3A
:1005E80088BFBCF5E06F1ED8BEF1004F08BF5FEAB8
:1005F800500E50F1000041EB045170BD06F000466A
:1006080046EA010140EA020081EA0301B4EB5C0416
:10061800C2BFD4EB0C0541EA045170BD41F480110E
:100628004FF0000E013C00F3AB8014F1360FDEBF33
:10063800002001F0004170BDC4F10004203C35DA0F
:100648000C341BDC04F11404C4F1200500FA05F392
:1006580020FA04F001FA05F240EA020001F0004233
:1006680021F0004110EBD37021FA04F642EB0601A9
:100678005EEA430E08BF20EAD37070BDC4F10C04D3
:10068800C4F1200500FA04F320FA05F001FA04F297
:1006980040EA020001F0004110EBD37041F1000183
:1006A8005EEA430E08BF20EAD37070BDC4F120058E
:1006B80000FA05F24EEA020E20FA04F301FA05F2F6
:1006C80043EA020321FA04F001F0004121FA04F29E
:1006D80020EA020000EBD3705EEA430E08BF20EA6E
:1006E800D37070BD94F0000F0FD101F000464000A8
:1006F80041EB010111F4801F08BF013CF7D041EA2A
:10070800060195F0000F18BF704703F0004652002D
:1007180043EB030313F4801F08BF013DF7D043EAFE
:100728000603704794EA0C0F0CEA135518BF95EAB4
:100738000C0F0CD050EA410618BF52EA4306D1D13B
:1007480081EA030101F000414FF0000070BD50EA5A
:10075800410606BF1046194652EA430619D094EAE4
:100768000C0F02D150EA013613D195EA0C0F05D1CE
:1007780052EA03361CBF104619460AD181EA030122
:1007880001F0004141F0FE4141F470014FF00000DA
:1007980070BD41F0FE4141F4780170BD70B54FF075
:1007A800FF0C4CF4E06C1CEA11541DBF1CEA1355F5
:1007B80094EA0C0F95EA0C0F00F0A7F8A4EB0504D7
:1007C80081EA030E52EA03354FEA013100F08880CE
:1007D8004FEA03334FF0805545EA131343EA126397
:1007E8004FEA022245EA111545EA10654FEA00264C
:1007F8000EF000419D4208BF964244F1FD0404F505
:10080800407402D25B084FEA3202B61A65EB030560
:100818005B084FEA32024FF480104FF4002CB6EB1D
:10082800020E75EB030E22BFB61A754640EA0C009D
:100838005B084FEA3202B6EB020E75EB030E22BFDD
:10084800B61A754640EA5C005B084FEA3202B6EB1E
:10085800020E75EB030E22BFB61A754640EA9C00DD
:100868005B084FEA3202B6EB020E75EB030E22BFAD
:10087800B61A754640EADC0055EA060E18D04FEA6B
:10088800051545EA16754FEA06164FEAC30343EA0B
:1008980052734FEAC2025FEA1C1CC0D111F4801FD8
:1008A8000BD141EA00014FF000004FF0004CB6E7D1
:1008B80011F4801F04BF01430020B4F1FD0C88BF70
:1008C800BCF5E06F3FF6AFAEB5EB030C04BFB6EB7B
:1008D800020C5FEA500C50F1000041EB045170BD6E
:1008E8000EF0004E4EEA113114EB5C04C2BFD4EB9B
:1008F8000C0541EA045170BD41F480114FF0000E1F
:10090800013C90E645EA060E8DE60CEA135594EA9A
:100918000C0F08BF95EA0C0F3FF43BAF94EA0C0F9D
:100928000AD150EA01347FF434AF95EA0C0F7FF412
:1009380025AF104619462CE795EA0C0F06D152EA66
:1009480003353FF4FDAE1046194622E750EA41064A
:1009580018BF52EA43067FF4C5AE50EA41047FF45B
:100968000DAF52EA43057FF4EBAE12E74A0011D20D
:1009780012F5001211D20DD56FF47873B3EB6252F1
:100988000ED44FEAC12343F0004343EA505323FAFD
:1009980002F070474FF00000704750EA013002D172
:1009A8004FF0FF3070474FF00000704753B94AB915
:1009B800002908BF00281CBF4FF0FF314FF0FF305F
:1009C80000F00CB8ADF1080C6DE904CE07F0DEFAC2
:1009D800DDF804E0DDE9022304B07047704700BF8A
:1009E8000348044B834202D0034B03B118477047B6
:1009F8001C0000201C000020000000000548064BD9
:100A08001B1AD90F01EBA301491002D0034B03B104
:100A1800184770471C0000201C0000200000000040
:100A280010B5064C237843B9FFF7DAFF044B13B12E
:100A38000448AFF300800123237010BD1C00002080
:100A4800000000001484000808B5054B1BB10549D7
:100A58000548AFF30080BDE80840FFF7CFBF00BFEF
:100A680000000000200000201484000810B58CB09D
:100A7800002409940A940B942022214601A807F027
:100A8800E3FB55484FF0A04303604FF44033436005
:100A98008460C46004610123436108228261047791
:100AA8004377026280F824404FF4D862C2624FF460
:100AB8004062026380F838304FF48052C26380F895
:100AC80040300C2242648464C464036501F078FCFD
:100AD800002862D10023099309A93F4802F098FB36
:100AE80000285DD13D4B0193062302930023039315
:100AF8007F2204920422059206930DEB02013648E8
:100B080001F072FF00284ED1354B01930C2302935C
:100B180001A9314801F068FF002847D1314B019302
:100B28001223029301A92C4801F05EFF002840D14E
:100B38002D4B01931823029301A9274801F054FF74
:100B4800002839D1254B01934FF48073029301A9F2
:100B5800214801F049FF002831D1214B01934FF47E
:100B68008373029301A91C4801F03EFF50BB1D4B43
:100B780001934FF48673029301A9174801F034FFDB
:100B880018BB194B01934FF48973029301A91248BA
:100B980001F02AFFE0B90CB010BD00F08FFF99E713
:100BA80000F08CFF9EE700F089FFADE700F086FFBC
:100BB800B4E700F083FFBBE700F080FFC2E700F076
:100BC8007DFFCAE700F07AFFD1E700F077FFD8E7AA
:100BD80000F074FFDFE700BF340200200002B025F8
:100BE8000800900C020030040400600800B589B0C9
:100BF80020220021684607F027FB2648264B036081
:100C08004FF44033436000238360C36003610122D3
:100C1800426104218161037742770221016280F8F1
:100C280024304FF4D861C1624FF44061016380F809
:100C380038204FF48051C16380F840200C21416472
:100C48008364C364026501F0BBFBC8B9134B00930E
:100C580006230193002302937F2203920422049225
:100C6800059369460B4801F0BFFE60B90C23019358
:100C78006946084801F0B8FE40B909B05DF804FBC0
:100C880000F01CFFE2E700F019FFEFE700F016FFA5
:100C9800F3E700BFC8010020000100501000C01099
:100CA80010B58CB0002409940A940B942022214694
:100CB80001A807F0C9FA2A482A4B03604FF44033C9
:100CC80043608460C4600461012343610822826137
:100CD800047743770222026280F824404FF4D862F6
:100CE800C2624FF44062026380F838304FF4805299
:100CF800C26380F840300C2242648464C464036593
:100D080001F05EFB00BB0023099309A9144802F017
:100D18007FFAE0B9144B019306230293002303934F
:100D28007F2204920422059206930DEB02010C48DF
:100D380001F05AFE70B90C23029301A9084801F08A
:100D480053FE50B90CB010BD00F0B8FEDBE700F060
:100D5800B5FEDFE700F0B2FEEDE700F0AFFEF1E729
:100D68005C010020000400500010603270B5A2B091
:100D7800044600211D911E911F912091219154221A
:100D880008A807F061FA2368B3F1A04F08D08E4A8B
:100D9800934270D08D4A934200F0C68022B070BD55
:100DA8004FF4004308934FF00053199308A804F038
:100DB800D9FF00284ED1864A136801331360012BEE
:100DC8004BD0844BDA6C42F00402DA64DA6C02F03D
:100DD80004020292029ADA6C42F00102DA64DB6CD5
:100DE80003F001030393039B08231D9303261E9618
:100DF80000251F951DA9784802F0E0FF07231D93E1
:100E08001E961F951DA94FF0904002F0D7FF73481A
:100E1800734B0360052343608560C56080230361CD
:100E28004FF4807343614FF4806383612023C3616F
:100E38004FF44053036202F0ABFBC8B9674B6365DC
:100E48009C6200221146122002F020FB122002F0C0
:100E58002DFBA3E700F032FEADE75E4BDA6C42F4FF
:100E68000052DA64DB6C03F400530193019BA8E79A
:100E780000F024FEE2E74FF4004308934FF00053DC
:100E8800199308A804F06EFF00283CD1504A136853
:100E980001331360012B39D04E4BDA6C42F001025A
:100EA800DA64DB6C03F001030593059B80261D962D
:100EB80003231E9300251F951DA94FF0904002F0B3
:100EC8007DFF4848484B0360242343608560C56024
:100ED80006614FF4807343614FF48063836120237C
:100EE800C3614FF44053036202F052FBC8B93D4B53
:100EF80063659C6200221146122002F0C7FA122094
:100F080002F0D4FA4AE700F0D9FDBFE7314BDA6CBA
:100F180042F40052DA64DB6C03F400530493049B3C
:100F2800BAE700F0CBFDE2E74FF4803308934FF0C7
:100F380000431A9308A804F015FF00283DD1254B5B
:100F4800DA6C42F48042DA64DA6C02F48042069287
:100F5800069ADA6C42F00202DA64DB6C03F00203F0
:100F68000793079B01231D9303231E9300251F95B9
:100F78001DA91E4802F022FF1D481E4B03602523B1
:100F880043608560C560802303614FF480734361CB
:100F98004FF4806383612023C361056202F0F8FA8D
:100FA80070B9134B63659C62002211462F2002F032
:100FB8006DFA2F2002F07AFAF0E600F07FFDBEE726
:100FC80000F07CFDEDE700BF000100500004005078
:100FD800380000200010024000080048FC000020F3
:100FE800080002409C000020300002400004004835
:100FF8003C0000201C00024000B583B0164B9A6CE0
:1010080042F004029A649A6C02F004020092009A78
:101018009A6C42F001029A649B6C03F001030193FD
:10102800019B002211460B2002F030FA0B2002F03F
:101038003DFA002211460C2002F028FA0C2002F09A
:1010480035FA002211460D2002F020FA0D2002F098
:101058002DFA03B05DF804FB0010024008B50F48F4
:101068000F4B0360002343608360C36003744374C1
:1010780083741022426101228261C261026242626B
:101088008262C262026343638363C36302F0DCFB70
:1010980000B908BD00F012FDFBE700BF08030020FF
:1010A8000064004008B50F480F4B036000234360FD
:1010B8008360C36003744374837410224261012205
:1010C8008261C261026242628262C26202634363F7
:1010D8008363C36302F0B8FB00B908BD00F0EEFCFF
:1010E800FBE700BFA40200200068004010B59EB0D6
:1010F8000446002119911A911B911C911D915422AB
:1011080004A807F0A1F82368424A934204D0424A4F
:10111800934238D01EB010BD4FF4805304934FF063
:101128000073129304A804F01DFEF0B93B4A13683B
:1011380001331360012B1BD0394BDA6C42F00202E9
:10114800DA64DB6C03F002030193019B4FF44073F4
:10115800199302231A9300231B931C9309231D93AD
:1011680019A9304802F02AFED4E700F0A7FCDDE711
:101178002B4B9A6D42F000729A659B6D03F00073D9
:101188000093009BD8E74FF4805304934FF000730B
:10119800129304A804F0E6FD68BB204A13680133E3
:1011A8001360012B2AD01E4BDA6C42F00202DA647B
:1011B800DB6C03F002030393039B60231993022360
:1011C8001A9300241B941C9409231D9319A91548EC
:1011D80002F0F4FD22462146562002F057F9562027
:1011E80002F064F922462146572002F04FF95720B1
:1011F80002F05CF98EE700F061FCCEE7084B9A6DCF
:1012080042F000729A659B6D03F000730293029B93
:10121800C9E700BF0064004000680040A002002049
:10122800001002400004004808B50548054B03605B
:1012380002F09CFD00B908BD00F040FCFBE700BFD0
:101248006C030020001402400268094B9A4200D047
:10125800704782B0A3F580639A6C42F010029A64DA
:101268009B6C03F010030193019B02B0704700BF11
:10127800001402402DE9F0438BB000240594069435
:10128800079408940994404BDA6C42F00402DA643B
:10129800DA6C02F004020092009ADA6C42F0200242
:1012A800DA64DA6C02F020020192019ADA6C42F0F8
:1012B8000102DA64DA6C02F001020292029ADA6C34
:1012C80042F00202DA64DA6C02F002020392039A34
:1012D800DA6C42F00802DA64DB6C03F0080304936A
:1012E800049B2A4E22464FF44051304602F050FEED
:1012F80001224FF480514FF0904002F049FEDFF890
:10130800908022460421404602F042FE4FF40053EA
:101318000593012506950794089405A9304602F01F
:101328004DFD05954FF404130693079505A930461E
:1013380002F044FD4FF48059CDF814901127069718
:101348000794089405A94FF0904002F037FDCDF8B6
:10135800149006970795089405A9304602F02EFDCB
:101368000423059306970795089405A9404602F0BB
:1013780025FD22462146062002F088F8062002F0C4
:1013880095F80BB0BDE8F083001002400008004853
:10139800000C004802680E4B9A4200D0704700B516
:1013A80083B003F528431A6E42F080621A661B6EFA
:1013B80003F080630193019B00221146432002F051
:1013C80065F8432002F072F803B05DF804FB00BF33
:1013D8000068014070B588B0002303930493059317
:1013E8000693079302681A4B9A4201D008B070BD61
:1013F80003F52843DA6C42F00202DA64DA6C02F090
:1014080002020192019ADA6C42F00102DA64DB6CA2
:1014180003F001030293029B4FF4704303930224E9
:1014280004940594032606960D25079503A90948F3
:1014380002F0C4FC4FF47063039304940594069679
:10144800079503A94FF0904002F0B8FCCEE700BF23
:10145800006801400004004810B5BAB00024389470
:1014680039943494359436943794602221461CA8D4
:1014780006F0EAFE19941A941B9412941394149487
:101488001594169417941894242221460DEB020003
:1014980006F0DAFE2022214601A806F0D5FEAF4864
:1014A800AF4B03604460846002F0C2FF002840F044
:1014B80006820C21A94803F027F8002840F0028290
:1014C8000A21A64803F059F8002840F0FE810023BD
:1014D80038930121399138AAA04803F089F80028E7
:1014E80040F0F681012211469C4803F0BAF9002821
:1014F80040F0F1810421399138AA984803F078F82E
:10150800002840F0EB8109220421944803F0A9F94E
:10151800002840F0E68143F22053349300233593AA
:1015280036930823379334AA06218C4803F047F8EA
:10153800002840F0D98110231C9300231D931E938B
:101548001F9301222092219322932393249325937E
:101558004FF000622692279328934FF00052299269
:1015680033931CAA06217D4803F040FA002840F076
:10157800BE810023199319AB01220621774803F095
:10158800EFFA002840F0B68141F69023199319AB81
:1015980004220621714803F0E3FA002840F0AD81E7
:1015A80046F6402334930021359134AA6B4803F062
:1015B80006F8002840F0A481002112911491159199
:1015C800189112AA654803F057FA002840F09B8149
:1015D80000211C911D912A912B912C914FF480731D
:1015E8002D932E914FF080733093202331934FF435
:1015F800802332931CAA594803F0F8F9002840F0D8
:1016080085810023299330931CAA0121534803F0B4
:10161800EDF9002840F07D814FF0005329934FF0F9
:101628008073309300233293012333931CAA022141
:101638004A4803F0DBF9002840F06E8100232E931E
:101648004FF08062319233931CAA0321434803F080
:10165800CDF9002840F063814FF6DF73199319AB79
:10166800012200213D4803F07BFA002840F05A810E
:1016780019AB04220021394803F072FA002840F01F
:101688005481002109911E230A930B910C910D910D
:101698000E930F911091119109AA304803F00EFA98
:1016A800002840F0458109AA01212C4803F006FAD8
:1016B800002840F0408132230A930E9309AA0221A0
:1016C800264803F0FBF9002840F0388109AA0321D5
:1016D800224803F0F3F9002840F0338100210191FA
:1016E80008230293202303930491059106910791FF
:1016F800089101AB0122194803F013FB002840F0C0
:10170800238101AB04220121144803F00AFB0028BD
:1017180040F01D812023029308220392069301AB17
:10172800102202210D4803F0FCFA002840F0128133
:1017380001AB40220321094803F0F3FA002840F0E6
:101748000C81002102910391069101AB022203480A
:1017580003F0E7FA002840F0038103E0A403002027
:101768000068014001AB08220121984803F0D9FA2A
:10177800002840F0F8802022069201AB022193480D
:1017880003F0CFFA002840F0F18001AB802203215A
:101798008E4803F0C6FA002840F0EB8034AA0121F5
:1017A8008A4802F00CFF002840F0E68000231393DB
:1017B80012AA0121854803F05FF9002840F0DF8074
:1017C80019AB01221146814803F0CAF9002840F0FC
:1017D800D98043F22053199300231A931B9319AB12
:1017E80002220121794803F0BBF9002840F0CD809E
:1017F8004FF6DF73199319AB04220121734803F0E4
:10180800AFF9002840F0C4804BF63A13349334AA59
:1018180002216E4802F0D3FE002840F0BC8012AAD4
:1018280002216A4803F028F9002840F0B78019AB74
:1018380001220221654803F093F9002840F0B180A5
:1018480045F69D43199319AB022211465F4803F0F0
:1018580087F9002840F0A8804FF6DF73199319AB79
:1018680004220221594803F07BF9002840F09F80A8
:1018780034AA0321554802F0A2FE002840F09A80BD
:1018880012AA0321514803F0F7F8002840F0958088
:1018980019AB012203214D4803F062F9002840F0FA
:1018A8008F8019AB04220321484803F059F9002816
:1018B80040F089804548FFF78DFD3AB010BD00F033
:1018C800FDF8F6E500F0FAF8FAE500F0F7F8FEE5BD
:1018D80000F0F4F806E600F0F1F80BE600F0EEF898
:1018E80011E600F0EBF816E600F0E8F823E600F061
:1018F800E5F83EE600F0E2F846E600F0DFF84FE6ED
:1019080000F0DCF858E600F0D9F861E600F0D6F807
:1019180077E600F0D3F87FE600F0D0F88EE600F026
:10192800CDF899E600F0CAF8A2E600F0C7F8A8E6F4
:1019380000F0C4F8B7E600F0C1F8BCE600F0BEF865
:10194800C4E600F0BBF8C9E600F0B8F8D9E600F044
:10195800B5F8DFE600F0B2F8EAE600F0AFF8F0E636
:1019680000F0ACF8FEE600F0A9F804E700F0A6F8ED
:101978000BE700F0A3F811E700F0A0F816E700F075
:101988009DF81DE700F09AF823E700F097F82FE795
:1019980000F094F838E700F091F840E700F08EF88E
:1019A80045E700F08BF84BE700F088F854E700F0C3
:1019B80085F85DE700F082F862E700F07FF867E7F6
:1019C80000F07CF86DE700F079F873E7A4030020D5
:1019D80008B51648164B036003F5A30303F20F235B
:1019E8004360002383600122C26003614361836115
:1019F800C361036203F04CFC70B900210B4803F08B
:101A0800ABFC60B90021094803F0D4FC50B94FF48D
:101A1800000003F0FBFC08BD00F050F8EDE700F013
:101A28004DF8EFE700F04AF8F1E700BFA004002006
:101A38000084004010B59CB004460021179118910D
:101A480019911A911B91542202A806F0FDFB2268F5
:101A5800174B9A4201D01CB010BD4FF400330293CB
:101A680002A804F07FF900BB124CE36C43F00403B6
:101A7800E364E36C03F004030093009BC023179313
:101A880012231893002319931A9308231B9317A959
:101A9800094802F093F9E36D43F00203E365E36D4F
:101AA80003F002030193019BD5E700F007F8DBE799
:101AB80000840040001002400008004872B6FEE7AB
:101AC80000B595B03822002106A806F0BDFB00201D
:101AD8000190029003900490059003F0ADFC01235F
:101AE80006934FF48033079302230D9303220E923B
:101AF80005220F924422109211931293139306A871
:101B080003F054FD80B90F230193032302930023AC
:101B180003930493059304210DEB010003F0FCFFEC
:101B280020B915B05DF804FBFFF7C8FFFFF7C6FF43
:101B380008B500F0E1FBFFF7C3FFFFF79BFBFFF7DA
:101B48005BFAFFF78BFAFFF7ADFAFFF785FCFFF7B3
:101B58006BFB00F017F9FEF789FFFFF739FF00F07C
:101B6800D5F900F0B9FA00F0B9F8FFF799F800F0E4
:101B78007DFA00F023FAFFF739F800F0D9F80122CE
:101B88004FF480514FF0904002F002FA0A2000F022
:101B9800D5FB06F07BF905F0DDFF722000F0CEFBE7
:101BA8004FF48051054802F0F8F9722000F0C6FBA6
:101BB8000421034802F0F1F9EFE700BF00080048EC
:101BC800000C004800B583B00B4B1A6E42F00102BE
:101BD8001A661A6E02F001020092009A9A6D42F09B
:101BE80080529A659B6D03F080530193019B03F02B
:101BF800A9FC03B05DF804FB00100240FEE7FEE715
:101C0800FEE7FEE7FEE770477047704708B500F04B
:101C180083FB08BD08B5012002F0CAF908BD000021
:101C280008B5024801F068FD08BD00BFFC000020AF
:101C380008B5024801F060FD08BD00BF3C00002067
:101C480008B5024801F058FD08BD00BF9C000020FF
:101C580008B5034800F002FD024800F0FFFC08BD8B
:101C680034020020C801002008B5024800F0F6FC44
:101C780008BD00BF5C01002008B5024804F013FC51
:101C880008BD00BF8C05002008B5024804F00BFC15
:101C980008BD00BF4005002008B50621014803F033
:101CA800E9FA08BDA403002008B5024801F064FF62
:101CB80008BD00BFA402002008B5024801F05CFF7F
:101CC80008BD00BFA4020020034AD2F8883043F4BC
:101CD8007003C2F88830704700ED00E000B585B0A9
:101CE80000230193029303930F48104A0260A9222C
:101CF8004260836040F2E733C3608023836104F06D
:101D08003FFD50B900230193039301A9064805F04C
:101D18006BF828B905B05DF804FBFFF7CFFEF1E7D3
:101D2800FFF7CCFEF6E700BF8C050020001000404E
:101D380000B585B000230193029303930F48104A1E
:101D48000260A9224260836042F20F73C36080235D
:101D5800836104F015FD50B900230193039301A991
:101D6800064805F041F828B905B05DF804FBFFF70F
:101D7800A5FEF1E7FFF7A2FEF6E700BF4005002049
:101D88000014004008B50948094B0360002343606C
:101D980083604FF6FF72C26003614361836104F0A0
:101DA800EFFC00B908BDFFF789FEFBE7F40400204B
:101DB8000044014000B587B003682C4A934216D00E
:101DC8002B4A934220D02B4A934228D02A4A934246
:101DD80038D02A4A934214D1294B1A6E42F4003261
:101DE8001A661B6E03F400330593059B09E0244B28
:101DF8009A6D42F002029A659B6D03F0020301930B
:101E0800019B07B05DF804FB1D4B9A6D42F0080278
:101E18009A659B6D03F008030293029BF1E7184B48
:101E28009A6D42F010029A659B6D03F010030393BC
:101E3800039B00221146362001F028FB362001F0D2
:101E480035FBDEE70E4B9A6D42F020029A659B6DDA
:101E580003F020030493049B00221146372001F06D
:101E680015FB372001F022FBCBE700BF0004004040
:101E7800000C0040001000400014004000440140E5
:101E88000010024000B589B0002303930493059322
:101E9800069307930368194A934205D0184A934258
:101EA80017D009B05DF804FB164BDA6C42F0020259
:101EB800DA64DB6C03F002030193019B8023039334
:101EC800022304930A23079303A90F4801F076FF1E
:101ED800E7E70C4BDA6C42F00202DA64DB6C03F0E1
:101EE80002030293029B04230393022304930793A0
:101EF80003A9054801F062FFD3E700BF00040040D2
:101F0800000C0040001002400004004800B58FB0EB
:101F180000230A930B930C930D930793089309934B
:101F28000093019302930393049305930693214826
:101F3800214A0260AA224260836040F6B732C2603A
:101F48000361836104F01CFC28BB4FF480530A939F
:101F58000AA9184804F06CFD00BB164804F040FCC0
:101F6800F8B900230793099307A9124804F03CFF26
:101F7800D0B96023009300230193029304930C22A9
:101F880069460C4804F0AAFC88B90A48FFF77AFFAA
:101F98000FB05DF804FBFFF791FDD6E7FFF78EFD64
:101FA800DBE7FFF78BFDDCE7FFF788FDE1E7FFF7ED
:101FB80085FDEAE7240600200004004000B58FB044
:101FC80000230A930B930C930D930793089309939B
:101FD8000093019302930393049305930693214876
:101FE800214A0260AA224260836040F2E732C2605E
:101FF80003618023836104F0C3FB20BB4FF480534B
:102008000A930AA9174804F013FDF8B9154804F013
:10201800E7FBF0B900230793099307A9114804F0D7
:10202800E3FEC8B960230093002201920292049251
:1020380069460C4804F052FC88B90A48FFF722FFA9
:102048000FB05DF804FBFFF739FDD7E7FFF736FD62
:10205800DCE7FFF733FDDDE7FFF730FDE2E7FFF7E9
:102068002DFDEAE7D8050020000C004008B5184807
:10207800184B03604FF4E133436000218160C16075
:1020880001610C2343618161C16101624162816226
:102098000B460A4605F066FA70B900210C4805F0AF
:1020A800C1FA60B900210A4805F0E1FA50B90848B8
:1020B80005F099FA48B908BDFFF700FDEDE7FFF70D
:1020C800FDFCEFE7FFF7FAFCF1E7FFF7F7FCF2E7B3
:1020D80004070020004C004008B51748174B036060
:1020E8004FF4E133436000238360C36003610C2233
:1020F80042618361C36103624362836205F0D9F977
:1021080070B900210C4805F08DFA60B900210A4821
:1021180005F0ADFA50B9084805F065FA48B908BDA8
:10212800FFF7CCFCEDE7FFF7C9FCEFE7FFF7C6FCCC
:10213800F1E7FFF7C3FCF2E7700600200038014022
:1021480030B5A1B0044600211B911C911D911E9130
:102158001F91542206A806F077F82368394A93425B
:1021680004D0394A934243D021B030BD08230693A6
:1021780006A803F0F7FD002837D1344B9A6D42F4D6
:1021880000229A659A6D02F400220192019ADA6C93
:1021980042F00102DA64DA6C02F001020292029A59
:1021A800DA6C42F00402DA64DB6C03F00403039394
:1021B800039B4FF400431B9302251C9500241D9498
:1021C8001E9408231F931BA94FF0904001F0F6FDC1
:1021D8004FF440631B931C951D941E9405231F9375
:1021E8001BA91B4801F0EAFDBEE7FFF767FCC4E73F
:1021F8000123069306A803F0B5FD00BB134B1A6E26
:1022080042F480421A661A6E02F480420492049ADA
:10221800DA6C42F00402DA64DB6C03F00403059321
:10222800059B30231B9302231C9300231D931E93AD
:1022380007231F931BA9064801F0C0FD94E7FFF789
:102248003DFCDBE7004C0040003801400010024034
:10225800000800480D488546FFF736FD0C480D4933
:102268000D4A002302E0D458C4500433C4188C42E9
:10227800F9D30A4A0A4C002301E013600432A2424F
:10228800FBD306F033F8FFF753FCFEE7000002200B
:10229800000000201C000020AC8400081C00002066
:1022A80040160020FEE70000104B1B680BB9012008
:1022B800704710B504464FF47A70B0FBF3F30C4A3C
:1022C8001068B0FBF3F001F0F5F868B90F2C01D9EC
:1022D80001200AE0002221464FF0FF3001F0D6F835
:1022E800044B1C60002000E0012010BD0400002009
:1022F800000000200800002010B5032001F0B4F809
:102308000F20FFF7D1FF10B10124204610BD04466D
:10231800FFF758FCF9E70000034A13680349096806
:102328000B441360704700BF98070020040000208A
:10233800014B1868704700BF9807002038B504465D
:10234800FFF7F6FF0546B4F1FF3F02D0044B1B68C8
:102358001C44FFF7EDFF401BA042FAD338BD00BF75
:102368000400002010B430300B0A9B0003F00C036B
:10237800C45801F01F014FF01F0C0CFA01FC24EAAD
:102388000C0CC2F384628A404CEA0202C2505DF827
:10239800044B704710B414304B0E9B0003F0040339
:1023A800C458C1F304514FF0070C0CFA01FC24EA9D
:1023B8000C0C8A404CEA0202C2505DF8044B70478C
:1023C80030B583B000230193002800F02B81044628
:1023D800C36D13B323689A6812F0005F05D09A683A
:1023E80022F0204222F03F029A602268936813F09C
:1023F800805F1FD1936823F0104323F03F0343F01D
:1024080080539360884B1B689B09884AA2FB03236F
:102418009B0901335B00019309E0FEF7A7FC002349
:10242800236684F85830D5E7019B013B0193019B53
:10243800002BF9D12268936813F0805F3DD1E36DDA
:1024480043F01003E365236E43F001032366012084
:10245800936813F0040300D00123E16D11F0100F0D
:1024680040F0D980002B40F0D680E36D23F48173CF
:1024780043F00203E365936813F0010F3ED1B2F114
:10248800A04F1CD06A4B9A4219D06A4B996811F038
:10249800010100D00121684B9B6813F0010300D0B3
:1024A80001230B436549896811F0010100D001211E
:1024B8000B430CBF0123002312E00020C8E74FF0B4
:1024C800A043996811F0010100D00121584B9B6885
:1024D80013F0010300D001230B430CBF0123002399
:1024E80063B1B2F1A04F69D0514B9A4264D05449BC
:1024F80063688A6822F47C1213438B60627FE36B03
:1025080043EA4233E2681343A268134394F8242051
:1025180043EA0243012A53D0E26A22B102F47872F4
:10252800216B0A4313432168CD68464A2A401A435F
:10253800CA602268136923F04063616B0B4313611F
:102548002268936813F0080300D001232BBB237F74
:1025580094F83810490041EA8331D36823F4804362
:1025680023F002030B43D360236973B32268136912
:1025780043F4803313612268D2F8C0306FF30D033F
:1025880021690B43C2F8C03094F84030012B29D0A0
:102598002268136923F0010313616369012B31D0A9
:1025A8002268136B23F00F031363E36D23F0030317
:1025B80043F00103E36533E0234999E7224997E7AC
:1025C800A26A013A43EA4243A6E72268136923F460
:1025D800803313612268D2F8C0306FF30D03C2F85C
:1025E800C030D1E721680B696FF38A03626CA56C70
:1025F8002A43E56C2A43256D2A43134343F001031C
:102608000B61CAE721680B6B23F00F03226A013ABA
:1026180013430B63C9E7E36D43F01003E36501203F
:1026280003B030BD0120FBE700000020632D3E050C
:102638000001005000040050000500500006005042
:10264800000700500740F0FF0003005008B5806AFB
:1026580005F0FCF808BD704770470000F8B504465F
:1026680003681E685F68B3F1A04F64D0984A93422C
:102678005FD0984B9D6805F01F0516F0020F10D02B
:1026880017F0020F0DD0E36D13F0100F03D1E36DB7
:1026980043F40063E365204600F0B8FD2368022296
:1026A8001A6016F0040F02D017F0040F05D116F0C7
:1026B800080F58D017F0080F55D0E36D13F0100F1E
:1026C80003D1E36D43F40073E3652368DA6812F419
:1026D800406F42D17E4A934232D002F580629342E3
:1026E8002BD01A46934207D0092D2CD840F221212D
:1026F800E94011F0010F26D0DA6812F4005F2CD1FE
:102708001A6812F0080F28D09A6812F0040F1CD12A
:102718005A6822F00C025A60E36D23F48073E36573
:10272800E36D13F4805F18D1E36D43F00103E365B3
:1027380013E0694B9EE7684B9CE7A2F58072D1E7EE
:102748004FF0A042CEE7D268D7E7E36D43F010031D
:10275800E365236E43F001032366204605F0BAF8CB
:1027680023680C221A6016F0200F02D017F0200FF1
:1027780005D116F0400F63D017F0400F60D0E36D1D
:1027880013F0100F03D1E36D43F40053E36523689E
:10279800DA6C12F4C07F16D10121DA6812F4406FA6
:1027A80013D101204A4A934214D002F58062934221
:1027B8000DD01A46934210D07DB1062D0DD0072DAD
:1027C8000BD0D2680AE00021E7E70020EAE7A2F58B
:1027D8008072EFE74FF0A042ECE7DA6851B312F0ED
:1027E800007F03D030B312F4005F23D1196811F0D1
:1027F800400F1FD012F4001F1CD19A6812F0080F66
:1028080010D15A6822F060025A60E36D23F48053B5
:10281800E365E36D13F4807F0CD1E36D43F00103AE
:10282800E36507E0E36D43F01003E365236E43F0CF
:1028380001032366204600F0E5FC236860221A6045
:1028480016F0800F02D017F0800F36D116F4807F73
:1028580002D017F4807F41D116F4007F02D017F41C
:10286800007F47D116F0100F20D017F0100F1DD0A1
:10287800E36B6BB1002D4DD02368B3F1A04F47D067
:10288800134A934242D0134B9B6813F4604F0AD00B
:10289800E36D43F48063E365236E43F0020323662C
:1028A8002046FFF7D9FE236810221A6016F4806FBD
:1028B80002D017F4806F33D1F8BDE36D43F4803351
:1028C800E3652046FFF7C7FE236880221A60BDE74C
:1028D800000100500007005000030050E36D43F46E
:1028E8000033E365204600F08FFC23684FF48072C4
:1028F8001A60B1E7E36D43F48023E365204600F0F6
:1029080084FC23684FF400721A60ABE70C4BBBE7FA
:102918000B4BB9E72368DB6813F0010FC3D0B7E7A7
:10292800E36D43F48043E365236E43F008032366B5
:1029380023684FF480621A60204600F064FCBBE70D
:102948000003005008B50346806AC26D12F0500FAC
:1029580030D1C36D43F40073C36503681A6812F07D
:10296800080F14D0DA6812F4406F20D1DB6813F432
:10297800005F1CD1C36D23F48073C365C36D13F46A
:10298800805F14D1C36D43F00103C3650FE0DB68BA
:1029980013F0020F0BD1C36D23F48073C365C36DAD
:1029A80013F4805F03D1C36D43F00103C36504F0E2
:1029B80091FF08BDC26D12F0100F04D1426D526B29
:1029C80018469047F5E7FFF747FEF2E708B5806A33
:1029D800C36D43F04003C365036E43F0040303660D
:1029E800FFF73AFE08BD0000F0B583B0002301935D
:1029F80090F85830012B00F0428204460D4601231E
:102A080080F858300068836813F0040F09D0E36D2C
:102A180043F02003E3650120002384F8583003B015
:102A2800F0BD0A684968FFF79DFC2068836813F0C9
:102A3800040300D00123866816F0080600D001269A
:102A4800002B3ED1002E3CD1AA68B2F1004F78D0BD
:102A58002968FFF79FFC2268536923F000435361FC
:102A680069692268D368C3F3C1035B009940286988
:102A7800042873D0603252F82070AB4B3B402F686B
:102A880007F0F84C41EA0C010B4343F0004342F8CD
:102A9800203023682869AA69603353F8201021F090
:102AA80080710A4343F82020236829692A7F012A74
:102AB80051D0603353F8212022F00072324343F89A
:102AC80021202268936813F0010F16D12B68E8685B
:102AD800D2F8B010C3F3120621EA060100F0180676
:102AE8009248F0400340C3F312030B43C2F8B030DE
:102AF800EA688F4B9A4200F099802B688D4A1342FE
:102B080000F0B7812268B2F1A04F00F050818A49E5
:102B18008A4200F049818949896801F0E070884D4E
:102B2800AB4200F04681874DAB4200F04281864DB2
:102B3800AB4200F07181854DAB4200F085810020E9
:102B48006AE700222968FFF725FC2268536943F0E9
:102B58000043536184E74FF00076AAE7136E116EC5
:102B6800C1F384612B68C3F3120080BBC3F3846391
:102B7800994234D021684B6E4A6EC2F384622B6846
:102B8800C3F3120080BBC3F384639A4234D0216834
:102B98008B6E8A6EC2F384622B68C3F3120080BB0B
:102BA800C3F384639A4234D02168CB6ECA6EC2F3F1
:102BB80084622B68C3F3120080BBC3F384639A4218
:102BC8007FF47FAFCB6E23F00043CB6679E793FAAF
:102BD800A3F313B1B3FA83F3CAE72023C8E7136E4C
:102BE80023F000431366C5E793FAA3F313B1B3FACE
:102BF80083F3CAE72023C8E74B6E23F000434B66F4
:102C0800C5E793FAA3F313B1B3FA83F3CAE7202312
:102C1800C8E78B6E23F000438B66C5E793FAA3F3EE
:102C280013B1B3FA83F3CAE72023C8E720682B68F7
:102C3800C3F3120626BB9A0E013202F01F02092ABC
:102C48008CBF00220122002A52D046BB990E0131C6
:102C5800890601F0F84176BB9F0E013707F01F0780
:102C68000122BA401143AEBB9B0E013303F01F0390
:102C780003EB43031B051943AA68FFF78BFB3CE7EB
:102C880093FAA3F24AB1B2FA82F2013202F01F02B9
:102C9800092A8CBF00220122D5E72022F5E793FA02
:102CA800A3F131B1B1FA81F10131890601F0F8419E
:102CB800D1E72021F8E793FAA3F24AB1B2FA82F2F7
:102CC800013202F01F024FF0010C0CFA02F2C9E7C0
:102CD8002022F5E793FAA3F343B1B3FA83F3013360
:102CE80003F01F0303EB43031B05C4E72023F6E7A8
:102CF80076BB990E0131890601F0F841A6BB9F0EFB
:102D0800013707F01F070122BA401143DEBB9B0EB3
:102D1800013303F01F0303EB43031E3B1B0543F082
:102D280000731943A8E700BF00F0FF03FFFF070087
:102D380000007F400000088000010050000700509C
:102D4800000021C31000C090000052C7000084CBCF
:102D580093FAA3F131B1B1FA81F10131890601F099
:102D6800F841CBE72021F8E793FAA3F24AB1B2FA87
:102D780082F2013202F01F024FF0010C0CFA02F24B
:102D8800C3E72022F5E793FAA3F35BB1B3FA83F321
:102D9800013303F01F0303EB43031E3B1B0543F002
:102DA8000073BEE72023F3E701F50071B4E6354967
:102DB800B2E611F4000F7FF4BAAEB2F1A04F04D01E
:102DC800314B9A4201D0002026E6B2F1A04F19D02B
:102DD8002E4B9A4214D02E4A40F40000936823F0F8
:102DE800E073184390602B4B1B689B092A4AA2FB8F
:102DF80003239B09013303EB43039B00019306E084
:102E0800204AE9E71F4AE7E7019B013B0193019B41
:102E1800002BF9D10020FFE511F0807F7FF48BAE05
:102E2800B2F1A04F0ED0194B9A4209D0184A40F07F
:102E38008070936823F0E073184390600020EBE5FE
:102E4800104AF4E70F4AF2E711F4800F13D10F4B41
:102E58009A4212D0B2F1A04F09D00D4940F4800334
:102E68008A6822F0E07213438B600020D4E505499C
:102E7800F4E70020D0E50020CEE50020CCE50220D4
:102E8800CDE500BF000300500006005000010050CF
:102E98000007005000000020632D3E0530B583B0C8
:102EA8000023019303689A6812F0010F63D1044666
:102EB8009968324A114220D19A6822F0004222F0E1
:102EC8003F0242F001029A600368B3F1A04F20D09C
:102ED8002B4A93421BD02B4B9B6813F4000F20D036
:102EE800294B1B689B09294AA2FB03239B09013331
:102EF80003EB43039B00019310E0C36D43F0100301
:102F0800C365036E43F001030366012034E0204BE0
:102F1800E2E71F4BE0E7019B013B0193019B002B7C
:102F2800F9D1FFF705FA054623681A6812F0010F70
:102F38001FD19A6812F0010F07D19A6822F0004257
:102F480022F03F0242F001029A60FFF7F1F9431BB9
:102F5800022BE9D923681B6813F0010FE4D1E36D54
:102F680043F01003E365236E43F001032366012059
:102F780002E0002000E0002003B030BD3F000080E8
:102F8800000100500007005000000020632D3E059E
:102F9800000300502DE9F04104460F4690460068B2
:102FA800B0F1A04F6ED0444B984268D0434B9E6816
:102FB80006F01F06856815F0040F77D194F858308D
:102FC800012B76D0012384F858303D4B984207D026
:102FD800092E66D840F22123F34013F0010F60D088
:102FE8002046FFF75BFF002857D1E36D23F4706399
:102FF80023F0010343F48073E36523682E4A934268
:1030080045D002F5806293423ED01A46934200D0E2
:103018001EB9E36D23F48013E365E36D13F4805F59
:1030280038D0236E23F006032366636D254ADA62DF
:10303800636D254A1A63636D244A5A6323681C2208
:103048001A60002384F858302268536843F010034C
:1030580053602268D36843F00103D3602168434674
:103068003A464031606D00F0FDFA2268936823F01B
:10307800004323F03F0343F00403936017E003F594
:10308800007394E7124B92E7A2F58072BEE74FF007
:10309800A042BBE700232366C7E7002384F8583023
:1030A80005E0002384F85830012000E00220BDE844
:1030B800F0810220FBE700BF00010050000700502C
:1030C800000600504D29000855260008D52900089B
:1030D8000003005038B504460268936813F00203F1
:1030E80000D00123916811F0010F39D0002B39D19C
:1030F800936803F00D03012B09D0E36D43F010032F
:10310800E365236E43F001032366012029E09368F9
:1031180023F0004323F03F0343F002039360236846
:1031280003221A60FFF704F9054623689B6813F029
:10313800010F13D0FFF7FCF8401B0228F5D92368CC
:103148009B6813F0010FF0D0E36D43F01003E365C3
:10315800236E43F001032366012002E0002000E013
:10316800002038BD0020FCE730B583B00023019370
:1031780090F85830012B41D004460D46012380F8C1
:103188005830FFF7A7FF80BBE36D23F4885323F083
:10319800020343F00203E3652268936823F0404387
:1031A80023F03F0305F080452B4343F00043936031
:1031B80023689B68002B06DBE36D23F0030343F0D1
:1031C8000103E36515E0019B01330193019A0C4B60
:1031D8009A42EDD9E36D23F0120343F01003E3653F
:1031E800002384F85830012006E0E36D43F0100313
:1031F800E365002384F8583003B030BD0220FBE7B4
:1032080001DE040070477047704770477047000040
:1032180090F85820012A00F0D68010B49DB00346DB
:10322800012280F858200022189219920068B0F103
:10323800A04F47D0654A904247D000220192019A98
:10324800002A46D0926812F0040200D00122846855
:1032580014F0040F40F0A780002A40F0A480B0F1D9
:10326800A04F42D05A4A90423CD05A4A0868002897
:103278005CD0906820F460404C6893F838C044EA09
:103288004C34204390601868B0F1A04F2FD0504CB8
:10329800A0422CD04D48846814F0010400D00124C9
:1032A8004D48806810F0010000D0012020434B4CAD
:1032B800A46814F0010400D0012420430CBF0120AD
:1032C800002025E0424A0192B9E702F58072019296
:1032D800B5E7DA6D42F02002DA65002283F858205B
:1032E800012068E002F50072C0E73D4ABEE74FF0F2
:1032F800A040846814F0010400D001243448806898
:1033080010F0010000D0012020430CBF0120002054
:10331800002854D0906820F4716020F00F000C68E9
:103328008968214308439060002041E0916821F4B6
:10333800604191601968B1F1A04F1AD024488142C8
:1033480017D02249886810F0010000D001202249D6
:10335800896811F0010100D0012101431F488068EC
:1033680010F0010000D0012001430CBF0121002111
:1033780010E04FF0A041886810F0010000D0012053
:103388001349896811F0010100D0012101430CBFE4
:1033980001210021A9B1916821F4716121F00F0187
:1033A8009160002004E0DA6D42F02002DA65012025
:1033B800002283F858201DB05DF8044B70470020A8
:1033C800F6E70020F4E70220704700BF0004005031
:1033D8000001005000070050000500500006005092
:1033E80000030050002807DB00F01F0240090123FA
:1033F8009340024A42F82030704700BF00E100E0E5
:10340800002808DB0901C9B200F1604000F56140FD
:1034180080F80013704700F00F000901C9B2014B92
:103428001954704714ED00E000B500F00700C0F132
:10343800070CBCF1040F28BF4FF0040C031D062B2A
:103448000FD9C31E4FF0FF3E0EFA0CF021EA00011F
:1034580099400EFA03FE22EA0E0241EA02005DF8E4
:1034680004FB0023EEE70000074AD36823F4E06377
:103478001B041B0C000200F4E060034343F0BF632D
:1034880043F40033D360704700ED00E010B5044604
:10349800054BD868C0F30220FFF7C6FF0146204657
:1034A800FFF7AEFF10BD00BF00ED00E008B5FFF765
:1034B80099FF08BD0138B0F1807F0BD24FF0E023AF
:1034C8005861054AF02182F82310002098610722EC
:1034D8001A6170470120704700ED00E030B4C46CF9
:1034E800056D6560446D14B1846DC56D6560446C8F
:1034F80004F01F0C012404FA0CF4056C6C600468D9
:1035080063608368102B05D0036899600368DA60EC
:1035180030BC704703689A600368D960F8E7000018
:1035280003680C4A934213D80B49DBB2083B0B4A99
:10353800A2FB0323426C22F003020A448264084A75
:10354800C264C3F30413012202FA03F3036570474C
:103558000449EAE70704024000080240CDCCCCCC7D
:1035680080080240200802400379074A1A44920062
:103578004265064A8265013B03F01F03012202FAF5
:1035880003F3C365704700BF3F8200104009024043
:10359800002859D010B5044602682C4B9A423BD8F3
:1035A8002B4B13442B49A1FB03131B099B004364BA
:1035B800294B0364022384F8253011686FF30E1138
:1035C800A368E06803432069034360690343A06973
:1035D8000343E0690343206A03430B431360204617
:1035E800FFF79EFFA368B3F5804F20D0A36C227924
:1035F8001A60E36C226D5A606368013B032B19D98A
:1036080000236365A365E3650020E063012384F874
:10361800253084F8240010BD104B13440D49A1FB3C
:1036280003131B099B0043640D4B0364C2E700238B
:103638006360DBE72046FFF797FF636D00221A609F
:10364800A36DE26D5A60DFE701207047070402406E
:10365800F8FFFDBFCDCCCCCC00000240F8FBFDBF8D
:103668000004024038B5044690F82400012841D0EF
:10367800012084F8240094F82500C0B2012804D061
:10368800002384F82430022038BD022084F8250065
:103698000020E0632568286820F0010028602046A3
:1036A800FFF71CFF236BD3B12268136843F00E03A6
:1036B8001360A36C1A6812F4803F03D01A6842F4AE
:1036C80080721A60636D1BB11A6842F480721A60C6
:1036D8002268136843F0010313600020D4E72268CE
:1036E800136823F0040313602268136843F00A0385
:1036F8001360DEE70220C7E738B5036C1968046871
:103708002568436C03F01F0304229A400A4215D02F
:1037180015F0040F12D0236813F0200F03D123688B
:1037280023F004032360436C03F01F02016C04239D
:1037380093404B60036B03B1984738BD02229A400F
:103748000A421CD015F0020F19D0236813F0200F7D
:1037580006D1236823F00A032360012380F825306B
:10376800436C03F01F02016C022393404B6000235B
:1037780080F82430C36A002BDFD09847DDE70822A1
:1037880002FA03F30B42D8D015F0080FD5D02368FE
:1037980023F00E032360436C03F01F03016C012226
:1037A80002FA03F34B60C26380F82520002380F8F7
:1037B8002430436B002BC0D09847BEE710B4026892
:1037C8001D4B9A4228D01D491D4B9A4226D00164B0
:1037D800D2F8803023F4F813446B43EA0443C2F868
:1037E800803001F1700343640268D2F8803023F01E
:1037F8007063846B43EA0463C2F8803001F1B0035C
:10380800836401F5C473C36401F51873036501F596
:103818001E7343650B4607E00A49D5E701F5D461F5
:10382800D5E7002243F8042B01F554729A42F8D8E0
:103838005DF8044B704700BF0068004000A40040DA
:10384800006C004050A70040002800F0E38038B525
:10385800044690F85C30D3B12268936923F01003D2
:103868009361FEF765FD054623689A6912F0080F13
:1038780012D0FEF75DFD401B0A28F5D9236E43F0F0
:1038880001032366032384F85C30012038BD80F8E7
:103898005D30FDF72BFCDFE79A6942F001029A617F
:1038A800FEF746FD054623689A6912F0010F0DD10F
:1038B800FEF73EFD401B0A28F5D9236E43F00103AD
:1038C8002366032384F85C300120DFE79A6942F01D
:1038D80002029A612268504B9A4242D0237C012B03
:1038E80045D02268936943F040039361637C012BC0
:1038F80043D02268936923F480439361A37C012B0E
:1039080041D02268936943F4805393612268936994
:1039180023F44073A1680B4393612268936923F0F1
:10392800A40393612268136923F010031361E36809
:10393800012B2ED0002B31D0022B54D02268936952
:1039480043F0800393612268136943F01003136105
:10395800E368032B22D12268936943F02003936123
:103968001CE06268A3F58063C3F80025B6E7226807
:10397800936923F040039361B8E72268936943F49D
:1039880080439361BAE72268936923F48053936173
:10399800BCE72268936943F004039361A3695A1E44
:1039A800E369013B1B0243EA4263226A013A13437B
:1039B8006269013A216843EA0243CB61A368B3F51F
:1039C800407F16D02268D2F8C030E16B0B43C2F8B2
:1039D800C0302046FFF7F2FE0020A06520660123D4
:1039E80084F85C3052E72268936943F020039361BE
:1039F800D4E7A36A013BE26A013A43EA0223226B55
:103A0800013A43EA0213626A013A216843EA02432F
:103A1800CB60D7E7012070470064004070B590F88C
:103A28005C40E4B2022C40F0958040290BD0046839
:103A3800D4F8985015F00F0F27D1036E43F4807314
:103A4800036601208BE00468D4F8905015F00F0F3E
:103A580005D1036E43F48073036601207FE0D4F838
:103A6800906016F0807605D0D4F8806016F4007661
:103A780000D00126D4F89040C4F301242644846C75
:103A880006EBC60504EBC50E14E0D4F8986016F0F2
:103A9800807605D0D4F8806016F4807600D00126B0
:103AA800D4F89840C4F301242644C46C06EBC60538
:103AB80004EBC50EDEF8004004F08044546064BB9B
:103AC800DEF80040C4F38A441460DEF8004004F0D5
:103AD80000549460DEF8004004F000441461BEF81D
:103AE8000440D461BEF8064004F00F04D460DEF848
:103AF800044004F480145461DEF8044004F4001413
:103B080094619EF8074004F07F041462DEF80440D4
:103B1800E40F54624FF0000C0CE0DEF8004024F093
:103B280060441460D1E70EEB0C04247A03F80C40CF
:103B38000CF1010CD4680A4D2C5D6445F3D840297A
:103B480004D00368C3F89C60002008E00368C3F849
:103B58009460F9E7036E43F008030366012070BD23
:103B68004484000870477047704770477047704733
:103B780070477047704770472DE9F84F044603684F
:103B88001A6D02F4E05A5A6D0AEA020A1A6D02F036
:103B980007095A6D09EA02091A6D02F038085A6DC8
:103BA80008EA02081E6D06F471065A6D16401F6D6C
:103BB80007F460275A6D1740D3F854B01D6D15F0FF
:103BC800400F02D01BF0400F41D115F4807F02D086
:103BD8001BF4807F40D1BAF1000F4AD1B9F1000F30
:103BE8004FD1B8F1000F54D115F4007F02D01BF467
:103BF800007F56D115F0800F02D01BF0800F58D1EE
:103C080015F4005F02D01BF4005F5ED115F4004F7D
:103C180002D01BF4004F60D115F4804F0AD01BF47A
:103C2800804F07D023684FF480421A65236E43F013
:103C380080032366002F58D126B123681E65236EA2
:103C480033432366236E002B56D1BDE8F88F4022FC
:103C58001A65FFF78EFFB8E72368D3F8D810D3F8B2
:103C6800E0204FF48070186511402046FFF77EFF72
:103C7800B1E72368C3F850A051462046FFF772FF0A
:103C8800ACE72368C3F850904946204603F066FE27
:103C9800A7E72368C3F8508041462046FFF763FF33
:103CA800A2E723684FF400721A652046FFF75CFF0D
:103CB800A0E72368D3F8D410D3F8DC208020186557
:103CC80011402046FFF751FF9AE723684FF400524E
:103CD8001A652046FFF74BFF98E723684FF4004228
:103CE8001A652046FFF744FF96E723681F653946A3
:103CF8002046FFF740FF9FE72046FFF73BFFA4E77A
:103D08000023C36043610382202380F83330704767
:103D18000023836103628383202380F83230704755
:103D280010B50446FFF7ECFF2046FFF7F1FF10BD82
:103D380038B50446FEF7FCFA05462268136943F4D1
:103D48008033136123681B6913F4803F0BD0FEF79F
:103D5800EFFA401BB0F5FA7FF4D9636B43F08003A8
:103D68006363012001E00020606338BD20B310B513
:103D7800044690F8313093B1002363602046FFF782
:103D8800CFFF2046FFF7D4FF01280DD00020606345
:103D9800202384F83130002384F8303010BD80F8B7
:103DA8003030FDF751FAE7E7636B43F010036363C4
:103DB800A02384F83130EEE701207047F0B583B0D6
:103DC800002362E085685E000324B44025EA040508
:103DD800CC68B4402C438460456825EA0C054C68DF
:103DE800C4F300149C402C4344605FE0DD080835B0
:103DF80050F8254003F0070C4FEA8C0C4FF00F0EDB
:103E08000EFA0CFE24EA0E0E0C6904FA0CF444EACD
:103E18000E0440F8254060E0052400E0002404FA80
:103E28000EF42C430CF1020C554D45F82C40554C22
:103E3800A568D44325EA02064F6817F4801F01D00D
:103E480042EA05064F4DAE60ED6804EA05064F6884
:103E580017F4001F01D042EA05064A4DEE606D686E
:103E680004EA05064F6817F4003F01D042EA050648
:103E7800444D6E602D682C404E6816F4803F01D08A
:103E880042EA05043F4A146001330A6832FA03F42F
:103E980074D04FF0010C0CFA03FC1CEA0202F3D0B8
:103EA8004C6804F00304013C012C8BD94C6804F0E5
:103EB8000304032C0CD0C4685D004FF0030C0CFA0B
:103EC80005FC24EA0C0C8C68AC4044EA0C04C46081
:103ED8004C6804F00304022C88D004684FEA430EAF
:103EE8004FF0030C0CFA0EFC24EA0C0C4C6804F09E
:103EF800030404FA0EF444EA0C0404604C6814F455
:103F0800403FC1D0204C256E45F001052566246E42
:103F180004F001040194019C4FEA930C0CF1020592
:103F2800174C54F8255003F0030E4FEA8E0E0F2459
:103F380004FA0EF425EA0405B0F1904F3FF46EAF91
:103F4800124CA04212D004F58064A04210D004F5AF
:103F58008064A0420ED004F58064A0420CD004F521
:103F68008064A0423FF458AF062458E7012456E77E
:103F7800022454E7032452E7042450E703B0F0BDB9
:103F88000000014000040140001002400004004805
:103F98000AB18161704781627047436901EA03028F
:103FA80021EA030141EA024181617047704700003C
:103FB80008B5054B5B69034200D108BD024B586147
:103FC800FFF7F4FFF9E700BF0004014010B40468EC
:103FD800226822F007028B68134323F01803CA688B
:103FE8001A43226003680A685A6103684A689A613A
:103FF8005DF8044B704730B5046801F1010C4FEAD5
:10400800CC1C54F80C3023F0070E936843EA0E03D7
:1040180023F01803D5682B4344F80C300368146860
:1040280003EBC113C3F894400368526803EBC11350
:10403800C3F8982030BD70B404682368D4F8A0533E
:1040480023F020034E69334323F0C002202E09D009
:104058008E69022E06D0032E29D0042E2AD023F0F2
:10406800E00201E042F0200222F40062CB6913432F
:1040780023F480620B6A134323F0C0624B6A134334
:1040880023F000628B6A134323F04043CA6A43EA71
:10409800820323F000534A6B1A4325F480350B6BD7
:1040A8001D4322600368C3F8A05370BC704742F0F8
:1040B8004002D9E742F08002D6E72DE9F0430568CF
:1040C8004B1CDB01EC5824F07044EC500568EB58AD
:1040D80005EBC114D4F8E870D4F8E490D5F8A043FF
:1040E80023F0200C536943EA0C0C202B09D0936968
:1040F800022B06D0032B5FD0042B62D02CF4D07C8B
:1041080003E02CF4C07C4CF0200C2CF4006CD36938
:1041180043EA0C0323F48063166A46EA030C2CF086
:10412800C06C536A43EA0C0323F0006C936A43EAB9
:104138000C0323F0704CD36A43EA0C0323F40033D6
:10414800566BB6F1005F41D023F04003D2F838C077
:104158004CEA030323F48023966D46EA030E2EF0FF
:10416800FC7E2EF4803E136D43EA0E0E27F03F07C7
:10417800D36B03F03F0848EA070828F00048176C9B
:1041880047EA080829F48076536C1E43936CB3F50C
:10419800606F1ED0B3F5F05F1BD026F4F0561E43B7
:1041A80026F48046D76C3E43576D05291AD8DFE8B8
:1041B80001F01431373D43492CF4807C4CF0800CDD
:1041C800A3E72CF0800C4CF4807C9EE743F400338A
:1041D800BAE7BCF1400FE3D1DFE724F40034136BF6
:1041E80044EA43044B1CDB0145F803E0036803EB96
:1041F800C113C3F8E880036803EBC113C3F8E46094
:10420800036803EBC113C3F8D4700368C3F8A04371
:10421800BDE8F08324F48024136B44EA8304E1E7C7
:1042280024F40024136B44EAC304DBE724F4801469
:10423800136B44EA0314D5E724F40014136B44EA1F
:104248004314CFE724F48004136B44EA8314C9E7CA
:1042580030B4006800EBC113D3F8EC3023F010033E
:10426800146843EA041323F48013546844EA030CE3
:104278002CF4803CD36843EA0C0323F4003C936895
:1042880043EA0C039469012C05D000EBC110C0F877
:10429800EC3030BC704723F00403156945EA030C81
:1042A8002CF0020C536943EA0C0323F00103234367
:1042B800EBE70000F0B4046804EBC115D5F8E4603E
:1042C800D5F8B850402A21D050D8012A1ED0002A4B
:1042D8005FD0202A5FD8022A5FD3023A4FF0010C40
:1042E8000CFA02F2314F3A420CD05A6804EBC1146E
:1042F800C4F8C42002689C6802EBC112C2F8C84026
:1043080010220FE044F204073A422DD05A6804EB19
:10431800C114C4F8BC2002689C6802EBC112C2F840
:10432800C0400022FE24944026EA04061C689440FB
:1043380044EA060CDC68944044EA0C041E6906FA58
:1043480002FC4CEA040C5C69944044EA0C0C9C693D
:10435800944044EA0C04082E21D0036803EBC113EF
:10436800C3F8E440F0BC70470022DBE7B2F5007FF9
:10437800BBD006D8802AB8D0B2F5807FC6D000223C
:10438800D0E7B2F5806FC1D0B2F5006FADD0002292
:10439800C8E70022C6E70022C4E70022C2E715F0FA
:1043A800022FDAD1DB6993401C43D6E74100004075
:1043B80006293CD8DFE801F00C141C242C34040036
:1043C8000268D2F8843343F00103C2F8843370479B
:1043D8000268D2F8843343F00203C2F8843370478A
:1043E8000268D2F8843343F00403C2F88433704778
:1043F8000268D2F8843343F00803C2F88433704764
:104408000268D2F8843343F01003C2F8843370474B
:104418000268D2F8843343F02003C2F8843370472B
:104428000268D2F8843343F04003C2F884337047FB
:10443800002864D010B582B00446022380F8DD302D
:104448000023C0F8E030C0F8E430C0F8E830C0F825
:10445800EC30C0F8F030C0F8F430C0F8F8308368B9
:1044680013F0010F12D00268264B9A4225D021681A
:104478000A6822F44042236903F44043134323F4B7
:104488004053626902F440521A430A602046FCF71E
:1044980081FFA36813F0020F08D021680A6822F48C
:1044A8004072E36803F4407313430B60012384F8FC
:1044B800DD30002384F8DC301CE003F528431A6E55
:1044C80042F080621A661B6E03F080630193019BC1
:1044D800CDE7C3EBC30204EB820200219161D161F5
:1044E800116251629162C3EBC30204EB8202116351
:1044F8000133DBB2062BECD9002002B010BD01203D
:10450800704700BF0068014090F8DC30012B32D0C2
:10451800012380F8DC30022380F8DD30B1F1FF3F61
:104528001AD00268D2F8CC3343F00203C2F8CC3375
:104538000268D2F8CC3323F00C030B43C2F8CC3317
:104548000268D2F8CC3343F00103C2F8CC3301231C
:1045580080F8DD30002070470268D2F8CC3323F0B1
:104568000203C2F8CC330268D2F8CC3343F001031B
:10457800C2F8CC33EBE70220704770B504460D460D
:10458800FDF7D6FE06462368D3F8883313F4803F38
:104598000ED1B5F1FF3FF6D0FDF7CAFE801BA84249
:1045A80001D8002DEFD1072384F8DD30032005E082
:1045B800012384F8DD30002084F8DC0070BD10B5DC
:1045C800044690F8DD00C0B202280BD0022384F81C
:1045D800DD30062907D02046FFF70DFD012384F8BA
:1045E800DD30002010BD11462046FFF7EFFCF5E74F
:1045F800034690F8DD00C0B2022800F0318193F83C
:10460800DC00012800F0288170B5012083F8DC0067
:10461800022083F8DD001868D0F88053D0F8FC43F6
:1046280020292AD8002900F00C8101F1FF3CBCF1B7
:104638001F0F00F20681DFE81CF063007F00040111
:104648008C0004010401040199000401040104011F
:104658000401040104010401A60004010401040189
:10466800040104010401040104010401040104011A
:104678000401040104010401B900B1F5807F00F0D0
:10468800C9801FD8402900F0AB80802940F0D9802C
:1046980024F4E04416684FEA161C0CF4E04C4CEA8B
:1046A8000404D0F8F86326F4F816C0F8F8631E6816
:1046B800D6F8F8035268120402F4F8120243C6F856
:1046C800F82326E0B1F5007F40F0BB8024F4E00435
:1046D80016684FEA061C0CF4E00C4CEA0404D0F807
:1046E800F86326F0F846C0F8F8631E68D6F8F803B1
:1046F8005268920602F0F8420243C6F8F82308E02E
:1047080025F4E025166806F4E02635435268C0F81B
:10471800BC2393F8DD20D2B2072A00F09F800F292E
:1047280000F296801A68C2F88053012283F8DD20CF
:10473800002083F8DC0070BD25F4601516684FEA88
:10474800C60C0CF4601C4CEA05055268C0F8C0237E
:10475800DFE725F0E07516684FEA861C0CF0E07C70
:104768004CEA05055268C0F8C423D2E725F0606515
:1047780016684FEA462C0CF0606C4CEA0505526846
:10478800C0F8C823C5E7568866F30204D0F8F86372
:1047980026F01F06C0F8F8631E68D6F8F8035268BA
:1047A80002F01F020243C6F8F823B2E724F07004AF
:1047B80016684FEA163C0CF0700C4CEA0404D0F86A
:1047C800F86326F47876C0F8F8631E68D6F8F8031C
:1047D8005268520102F478720243C6F8F82398E747
:1047E80024F4E06416684FEA162C0CF4E06C4CEAEA
:1047F8000404D0F8F86326F4F846C0F8F8631E6895
:10480800D6F8F8035268920202F4F8420243C6F856
:10481800F8237EE724F4E024166806F4E0263443FF
:10482800D0F8F86326F07876C0F8F8631E68D6F8F2
:10483800F8035268520502F078720243C6F8F8236A
:1048480067E7072283F8DD20002283F8DC2060E791
:104858001A68C2F8FC4368E70220704701206AE73B
:104868007047034690F8DD00C0B2022800F0BD8012
:1048780093F8DC00012800F0B580012083F8DC0003
:10488800022083F8DD00202918D8002900F0A38031
:1048980001391F2900F29F80DFE801F0344A9D5654
:1048A8009D9D9D629D9D9D9D9D9D9D6E9D9D9D9D9A
:1048B8009D9D9D9D9D9D9D9D9D9D9D7AB1F5807F12
:1048C8007DD010D840296ED0802940F084801868A7
:1048D800D0F8041421F4F831120302F4F8320A4330
:1048E800C0F8042418E0B1F5007F74D11868D0F836
:1048F800041421F0F851120602F0F8520A43C0F8E5
:10490800042409E01868D0F8001421F01F0102F00F
:104918001F020A43C0F8002493F8DD20D2B2072A08
:1049280062D0012283F8DD20002083F8DC00704784
:104938001868D0F8001421F4F861920102F4F862C2
:104948000A43C0F80024E7E71868D0F8001421F4F7
:10495800F831120302F4F8320A43C0F80024DBE706
:104968001868D0F8001421F4F801920402F4F8024F
:104978000A43C0F80024CFE71868D0F8001421F0E3
:10498800F851120602F0F8520A43C0F80024C3E7AF
:104998001868D0F8041421F01F0102F01F020A431E
:1049A800C0F80424B8E71868D0F8041421F4F861B2
:1049B800920102F4F8620A43C0F80424ACE71868CC
:1049C800D0F8041421F4F801920402F4F8020A431E
:1049D800C0F80424A0E7072283F8DD20002283F82A
:1049E800DC2099E7022070470120704770B5044623
:1049F80090F8DD00C0B2022836D00D46164694F86D
:104A0800DC30012B36D0012384F8DC30022384F813
:104A1800DD30062929D02046FFF74FFB3268C5EB69
:104A2800C50304EB83031A6272685A62B2689A6219
:104A3800F268DA6232691A6329462046FFF7B8FC41
:104A4800062D0BD0F36A4BB922680135ED01535995
:104A580023F40073F16D43EA41235351012384F891
:104A6800DD30002084F8DC0070BD11462046FFF7D9
:104A7800E2FAD3E70220F7E770B5044690F8DD00C4
:104A8800C0B2022816D00D4694F8DC30012B12D0A3
:104A9800012684F8DC60022384F8DD302046FFF725
:104AA800D7FB29462046FFF783FC84F8DD60002009
:104AB80084F8DC0070BD0220FCE70000034690F893
:104AC800DD00C0B2022845D093F8DC0001283FD0B1
:104AD80030B54FF0010E83F8DCE0022083F8DD00EA
:104AE800106800F4E0545068C0F30800044390686C
:104AF80000F400700443106900F480400443D06857
:104B080000F4004004431448556900EA054C4CEA97
:104B1800040C906900F0007040EA0C0C106A00F078
:104B2800804040EA0C0CD06900F0004040EA0C00DC
:104B38001A6802EBC111D1F8B840084A2240024372
:104B4800C1F8B82083F8DDE0002083F8DC0030BD30
:104B580002207047704700BF0000FF010020003CA2
:104B6800844690F8DD00C0B2022800F0D9809CF895
:104B7800DC00012800F0D08030B401208CF8DC0083
:104B880002208CF8DD00062909D0013A072A00F234
:104B9800BC80DFE802F02E43BA7ABABABA82013A88
:104BA800072A1FD8DFE802F0040F1E141E1E1E1964
:104BB800DCF800201B68D3619CF8DD30DBB2072BE2
:104BC80024D1012028E0DCF800201B685362F3E7B9
:104BD800DCF800201B689362EEE7DCF800201B6815
:104BE800D362E9E707238CF8DD3000238CF8DC304A
:104BF800E2E7DCF800201B6802EBC112C2F89C3027
:104C08009CF8DD30DBB2072B00F0888001238CF89C
:104C1800DD3000208CF8DC0030BC7047DCF8002068
:104C2800186802EBC112C2F8A4005A6822B3DCF873
:104C380000404A1CD201A05820F44050A050DCF893
:104C48000040A0585D682843A0505A68B2F5005F3C
:104C58000AD0B2F5405FD3D1DCF800209B6802EBA4
:104C6800C112C2F8A830CBE7DCF800209B6802EB41
:104C7800C112C2F89C30C3E7DCF800200131C90139
:104C8800535823F440535350BAE7DCF800201B680C
:104C980002EBC112C2F8A830B2E7DCF800201868AD
:104CA80002EBC112C2F8AC005A682AB3DCF8004023
:104CB8004A1CD201A05820F44040A050DCF8004023
:104CC800A0585D6840EA8500A0505A68B2F5005FB8
:104CD8000AD0B2F5405F93D1DCF800209B6802EB64
:104CE800C112C2F8A8308BE7DCF800209B6802EB01
:104CF800C112C2F89C3083E7DCF800200131C901F9
:104D0800535823F4404353507AE707238CF8DD3097
:104D180000238CF8DC3073E70220704701207BE722
:104D2800704738B5044690F8DD00C0B2022811D0AB
:104D380094F8DC0001280ED0012584F8DC5002200C
:104D480084F8DD002046FFF7B5FA84F8DD5000202E
:104D580084F8DC0038BD0220FCE790F8DC30012B39
:104D680015D010B4012280F8DC20022380F8DD3051
:104D78000468D4F894330B43C4F8943380F8DD20E6
:104D8800002380F8DC3018465DF8044B7047022099
:104D9800704790F8DC30012B13D010B4012280F852
:104DA800DC20022380F8DD30046823680B4323608D
:104DB80080F8DD20002380F8DC3018465DF8044BCD
:104DC800704702207047000090F8DC30012B3DD07E
:104DD80030B40246012380F8DC30022380F8DD304D
:104DE8000068D0F8903354682343C0F8903311F426
:104DF800803F05D01068C368D2F8C8402343C36019
:104E0800002301E00133DBB2052B13D8104850F81A
:104E180023000842F6D0106800EBC310D0F88C408D
:104E2800C3EBC30C02EB8C0CDCF820502C43C0F80D
:104E38008C40E7E7106803680B430360012382F89E
:104E4800DD30002082F8DC0030BC7047022070475B
:104E58005484000870477047704770477047704720
:104E6800704770B505460368D3F88843D3F8906354
:104E780014F0010F02D016F0010F24D114F0020F24
:104E880002D016F0020F24D114F0040F02D016F04D
:104E9800040F26D114F0080F02D016F0080F28D1FD
:104EA80014F0100F02D016F0100F2AD114F0400F92
:104EB80002D016F0400F2CD114F0200F02D016F0BB
:104EC800200F2ED170BD0122C3F88C23FFF7C2FF3B
:104ED800D4E72B680222C3F88C232846FFF7BBFFD0
:104EE800D2E72B680422C3F88C232846FFF7B4FFC7
:104EF800D0E72B680822C3F88C232846FFF7ADFFBC
:104F0800CEE72B681022C3F88C232846FFF7A6FFAC
:104F1800CCE72B684022C3F88C232846FFF79FFF75
:104F2800CAE72B682022C3F88C232846FFF798FF8E
:104F3800C8E77047704770477047704770477047B9
:104F480070472DE9F04105460368D3F88873D3F814
:104F580090835C68DE6817F4803F02D018F4803FC5
:104F680031D117F4003F02D018F4003F38D114F0C3
:104F7800010F02D016F0010F3BD114F0020F02D03E
:104F880016F0020F3DD114F0040F02D016F0040FF2
:104F98003FD114F0080F02D016F0080F41D114F0D9
:104FA800100F02D016F0100F43D114F0200F02D0CA
:104FB80016F0200F45D114F0400F02D016F0400F24
:104FC80046D1BDE8F0814FF48032C3F88C23012329
:104FD80080F8DD30002380F8DC30FFF7AAFFC0E757
:104FE8002B684FF40032C3F88C232846FFF7A2FF42
:104FF800BDE72B6801229A6006212846FFF79DFF2E
:10500800BBE72B6802229A6006212846FFF796FF25
:10501800B9E72B6804229A6006212846FFF78FFF1C
:10502800B7E72B6808229A6006212846FFF788FF11
:10503800B5E72B6810229A600621284602F06AFF1D
:10504800B3E72B6820229A602846FFF774FFB2E77F
:105058002B6840229A6006212846FFF76DFFB0E7CB
:105068007047704770477047704770477047704780
:10507800F8B506460D4602684B1C02EBC3135C6884
:1050880002EBC113D3F88C7014F0010F02D017F0A3
:10509800010F52D114F0020F02D017F0020F53D1B2
:1050A80014F0040F02D017F0040F58D114F0080FB1
:1050B80002D017F0080F5DD114F0100F02D017F0CE
:1050C800100F62D114F0400F02D017F0400F67D1D3
:1050D80014F0800F02D017F0800F6CD114F4807F89
:1050E80002D017F4807F71D114F4007F02D017F436
:1050F800007F77D114F4806F02D017F4806F7DD1D0
:1051080014F4006F03D017F4006F40F0838014F498
:10511800805F03D017F4805F40F0888014F4005F4C
:1051280003D017F4005F40F08D8014F4804F03D053
:1051380017F4804F40F09280F8BD1A460123C2F858
:105148008830FFF7FAFEA5E7336803EBC5130222A0
:10515800C3F8882029463046FFF7F0FEA0E73368F9
:1051680003EBC5130422C3F8882029463046FFF70D
:10517800E6FE9BE7336803EBC5130822C3F88820D3
:1051880029463046FFF7DCFE96E7336803EBC51384
:105198001022C3F888202946304602F0BBFE91E76A
:1051A800336803EBC5134022C3F8882029463046EC
:1051B800FFF7C2FE8CE7336803EBC5138022C3F800
:1051C800882029463046FFF74BFF87E7336803EB13
:1051D800C5134FF48072C3F8882029463046FFF77C
:1051E80040FF81E7336803EBC5134FF40072C3F83F
:1051F800882029463046FFF737FF7BE7336803EB03
:10520800C5134FF48062C3F8882029463046FFF75B
:105218002CFF75E7336803EBC5134FF40062C3F83E
:10522800882029463046FFF721FF70E7336803EBF3
:10523800C5134FF48052C3F8882029463046FFF73B
:1052480016FF6BE7336803EBC5134FF40052C3F83E
:10525800882029463046FFF706FF66E7336803EBE8
:10526800C5134FF48042C3F8882029463046FFF71B
:10527800F9FE61E708B5FF2904D0062905D0FFF734
:10528800F7FE08BDFFF7EDFDFBE7FFF75AFEF8E76D
:1052980000285FD010B5044690F84130002B48D064
:1052A800242384F841302268136823F00103136033
:1052B8006368226823F0706313612268936823F49B
:1052C80000439360E368012B38D0A368226843F455
:1052D80004439360E368022B36D02268536823F4B2
:1052E800006353602268536843F0007343F400433B
:1052F80053602268D36823F40043D360236962694A
:105308001343A169226843EA0123D360E369216A50
:1053180022680B4313602268136843F0010313608B
:1053280000206064202384F84130206384F8420020
:1053380010BD80F84030FCF77DFBB1E7A368226818
:1053480043F400439360C5E72268536843F400635D
:105358005360C7E701207047034690F84120D2B256
:10536800202A23D190F84020012A21D0012280F858
:105378004020242280F841200068026822F00102BF
:1053880002601868026822F4805202601868026895
:105398001143016019680A6842F001020A6020227C
:1053A80083F84120002083F84000704702207047AE
:1053B80002207047034690F84120D2B2202A21D11A
:1053C80090F84020012A1FD0012280F84020242292
:1053D80080F841200068026822F001020260186823
:1053E800026822F4706242EA0122026019680A68BF
:1053F80042F001020A60202283F84120002083F84D
:1054080040007047022070470220704782B0084B66
:105418001A6E42F001021A661B6E03F00103019333
:10542800019B044A53680343536002B0704700BFAE
:105438000010024000000140002836D13E4B1B6896
:1054480003F4C063B3F5806F08D03B4AD2F88030CC
:1054580023F48073C2F8803000207047364AD2F8AF
:10546800803023F48073C2F88030136823F4C0635B
:1054780043F400731360314B1B68322202FB03F3C1
:105488002F4AA2FB03239B0C013300E0013B2A4A6D
:10549800526912F4806F01D0002BF7D1264B5B695B
:1054A80013F4806F44D100207047B0F5007F08D016
:1054B800214A136823F4C06343F480631360002017
:1054C80070471D4B1B6803F4C063B3F5806F08D0A9
:1054D800194AD2F8803043F48073C2F88030002033
:1054E8007047154AD2F8803043F48073C2F8803090
:1054F800136823F4C06343F4007313600F4B1B68F5
:10550800322202FB03F30E4AA2FB03239B0C013356
:1055180000E0013B084A526912F4806F01D0002B69
:10552800F7D1054B5B6913F4806F03D100207047F6
:1055380003207047032070470070004000000020DF
:1055480083DE1B43024A936843F4804393607047A9
:1055580000700040124BDA6802F00302DB68C3F304
:1055680003130133032A11D00E48B0FBF3F00C4BA0
:10557800DB68C3F3062303FB00F0094BDB68C3F3C6
:10558800416301335B00B0FBF3F070470648B0FBA2
:10559800F3F0034BDB68C3F3062303FB00F0ECE7EF
:1055A800001002400024F40040787D01002800F03B
:1055B8004F8270B582B00446036813F0010F37D0EC
:1055C800A44A936803F00C03D26802F003020C2B80
:1055D80023D0082B23D06368B3F5803F4ED0B3F5B2
:1055E800A02F51D09B4B1A6822F480321A601A6897
:1055F80022F480221A606368002B52D0FCF798FED0
:105608000546944B1B6813F4003F11D1FCF790FE3C
:10561800401B6428F5D9032023E2032AD9D18D4BF6
:105628001B6813F4003F03D06368002B00F012825C
:10563800236813F0020F5DD0864A936803F00C03C9
:10564800D26802F003020C2B3AD0042B3AD0E3685C
:10565800002B75D07F4A136843F480731360FCF7FE
:1056680067FE05467B4B1B6813F4806F5FD1FCF720
:105678005FFE401B0228F5D90320F2E1754A136842
:1056880043F480331360B6E703F18043A3F53C335A
:105698001A6842F480221A601A6842F480321A604A
:1056A800A9E7FCF745FE05466A4B1B6813F4003F63
:1056B800BED0FCF73DFE401B6428F5D90320D0E19D
:1056C800022AC2D1634B1B6813F4806F03D0E368CE
:1056D800002B00F0C1815F4A536823F0FE43216923
:1056E80043EA016353605C4B1868FCF7DDFD002852
:1056F80040F0B481236813F0080F4CD063699BB362
:10570800544AD2F8943043F00103C2F89430FCF7BD
:105718000FFE05464F4BD3F8943013F0020F3AD1E1
:10572800FCF706FE401B0228F4D9032099E1494AF8
:10573800536823F0FE43216943EA01635360D9E7C4
:10574800444A136823F480731360FCF7F1FD05469F
:10575800404B1B6813F4806FCCD0FCF7E9FD401B6D
:105768000228F5D903207CE13A4AD2F8943023F094
:105778000103C2F89430FCF7DBFD0546354BD3F83E
:10578800943013F0020F06D0FCF7D2FD401B02281C
:10579800F4D9032065E1236813F0040F00F0818039
:1057A8002C4B9B6D13F0805F36D12A4B9A6D42F0DB
:1057B80080529A659B6D03F080530193019B0125EC
:1057C800264B1B6813F4807F28D0A368012B39D09F
:1057D800052B45D01F4BD3F8902022F00102C3F8C7
:1057E8009020D3F8902022F00402C3F89020A368F8
:1057F800002B43D0FCF79CFD0646164BD3F890309F
:1058080013F0020F4CD1FCF793FD801B41F2883353
:105818009842F2D9032024E10025D1E70F4A136802
:1058280043F480731360FCF783FD06460B4B1B683B
:1058380013F4807FC9D1FCF77BFD801B0228F5D9C2
:1058480003200EE1034AD2F8903043F00103C2F876
:105858009030CCE7001002400800002000700040A3
:10586800884BD3F8902042F00402C3F89020D3F874
:10587800902042F00102C3F89020B8E7FCF758FDE9
:105888000646804BD3F8903013F0020F08D0FCF78F
:105898004FFD801B41F288339842F2D90320E0E0A3
:1058A800E5B9236813F0200F35D0A369E3B1754A31
:1058B800D2F8983043F00103C2F89830FCF738FD6D
:1058C8000546704BD3F8983013F0020F23D1FCF73C
:1058D8002FFD401B0228F4D90320C2E0694A936DCA
:1058E80023F080539365DCE7664AD2F8983023F0BA
:1058F8000103C2F89830FCF71BFD0546614BD3F84D
:10590800983013F0020F06D0FCF712FD401B022856
:10591800F4D90320A5E0E369002B00F0A180594ADF
:10592800926802F00C020C2A64D0022B13D0554A5C
:10593800136823F080731360FCF7FAFC0446514B9C
:105948001B6813F0007F4ED0FCF7F2FC001B022806
:10595800F5D9032085E04B4A136823F08073136060
:10596800FCF7E6FC0546474B1B6813F0007F06D0A2
:10597800FCF7DEFC401B0228F5D9032071E0414A00
:10598800D36841491940236A606A013843EA001321
:10599800A06A43EA0023206B4008013843EA4053D9
:1059A800606B4008013843EA4063E06A43EAC06339
:1059B8001943D160136843F080731360D36843F0D0
:1059C8008073D360FCF7B4FC04462E4B1B6813F0BD
:1059D800007F06D1FCF7ACFC001B0228F5D9032098
:1059E8003FE000203DE0274AD168284B0B40D360B8
:1059F800002036E0012B36D0224BDB6803F0030190
:105A0800226A914231D103F0F002616A0139B2EBA6
:105A1800011F2CD103F4FE42A16AB2EB012F28D159
:105A280003F07842E16AB2EBC16F24D103F4C001FC
:105A3800226B5208013AB1EB425F1ED103F0C063FA
:105A4800626B5208013AB3EB426F18D1002008E0AC
:105A580001207047012004E0012002E0012000E05D
:105A6800002002B070BD0120FBE70120F9E701200A
:105A7800F7E70120F5E70120F3E70120F1E701202E
:105A8800EFE700BF001002400C809F01FCFFEEFE14
:105A98001E4B9B6803F00C03042B33D01B4B9B68F5
:105AA80003F00C03082B2FD0184B9B6803F00C0352
:105AB8000C2B01D000207047144BDA6802F0030267
:105AC800DB68C3F303130133032A11D01048B0FB7A
